:100000000C9434000C9451000C9451000C94510049
:100010000C9451000C9451000C9451000C9451001C
:100020000C9451000C9451000C9451000C940E034C
:100030000C9451000C9451000C9451000C945100FC
:100040000C9451000C9451000C9451000C945100EC
:100050000C9451000C9451000C9451000C945100DC
:100060000C9451000C94510011241FBECFEFD8E026
:10007000DEBFCDBF11E0A0E0B1E0EEE6FAE002C0E5
:1000800005900D92A431B107D9F711E0A4E1B1E0D8
:1000900001C01D92A238B107E1F70E949A030C94A7
:1000A00035050C9400000F931F93DF93CF9300D07E
:1000B0000F92CDB7DEB786EA89838DE28A8388E026
:1000C0008B838E010F5F1F4FC80163E00E942502E2
:1000D00081E38A838BE08B83C80163E00E94250261
:1000E0000F900F900F90CF91DF911F910F91089576
:1000F000AF92BF92CF92DF92EF92FF920F93DF9376
:10010000CF9300D000D000D0CDB7DEB75C016B013B
:100110007A0186EA67EA42E39E012F5F3F4F06E0DD
:100120000E949F023A8120E0898190E0822B932BEC
:10013000F501918380833C8120E08B8190E0822BCC
:10014000932BF601918380833E8120E08D8190E0A6
:10015000822B932BF7019183808326960FB6F89418
:10016000DEBF0FBECDBFCF91DF910F91FF90EF901B
:10017000DF90CF90BF90AF9008950895EF92FF92D7
:100180000F93DF93CF9300D000D0CDB7DEB79CE3C1
:1001900099831A828295880F807E842B660F660F62
:1001A000682B6B837E010894E11CF11CC70163E09E
:1001B0002C830E94250281E08A832C812295220FC4
:1001C000207E2B83C70163E00E94250282E08A83A0
:1001D0000B83C70163E00E9425020F900F900F90E0
:1001E0000F90CF91DF910F91FF90EF9008958F9234
:1001F0009F92AF92BF92CF92DF92EF92FF920F93B6
:100200001F93DF93CF93CDB7DEB728970FB6F8943F
:10021000DEBF0FBECDBF6C015B017A019CE3892E6E
:10022000898283E0982E9A828E010F5F1F4FC8014A
:1002300062E00E9425028DE3BE016D5F7F4F46E0C4
:100240000E94520289829A82C80162E00E942502BD
:100250008B819C81F601918380838F819885F50144
:10026000918380838D819E81F7019183808381E0DA
:1002700028960FB6F894DEBF0FBECDBFCF91DF91A9
:100280001F910F91FF90EF90DF90CF90BF90AF90B4
:100290009F908F9008950895FF920F931F93DF937F
:1002A000CF9300D00F92CDB7DEB7F62E90ED9983A5
:1002B00095E19A838B838E010F5F1F4FC80163E026
:1002C0000E94250286E18A838F2D88618B83C80175
:1002D00063E00E9425020F900F900F90CF91DF9165
:1002E0001F910F91FF900895AF92BF92CF92DF922E
:1002F000EF92FF920F93DF93CF9300D000D000D006
:10030000CDB7DEB75C016B017A0180ED61ED4DE1A7
:100310009E012F5F3F4F06E00E949F02398120E03F
:100320008A8190E0822B932BF501918380833B811E
:1003300020E08C8190E0822B932BF60191838083C7
:100340003D8120E08E8190E0822B932BF7019183F9
:10035000808326960FB6F894DEBF0FBECDBFCF9137
:10036000DF910F91FF90EF90DF90CF90BF90AF9013
:1003700008950895BC018091B9008E7F8093B900E3
:100380008091B9008D7F8093B90080ED97E00E9445
:10039000DA04603128F070E060517040759567951F
:1003A0006093B800089580E991E00E94BA01ECEBF7
:1003B000F0E080818460808308953C9A84EA809391
:1003C000BC00089584E98093BC00089580E090E02B
:1003D00001C001962091BC0027FD03C08A3591051C
:1003E000C1F70895882329F08091BC008F70806C3C
:1003F00004C08091BC008F7080688093BC00089519
:100400008091BB0008958091B90008950AC02AE543
:100410000000000000000000000000002150C1F7B3
:1004200001970097A1F708951F93182F81E090E09E
:100430000E9406023C9A1093BB0084E88093BC00A3
:100440001F9108950E94D3010895EF92FF920F9398
:100450001F93DF93CF930F92CDB7DEB7182F062FE0
:1004600099830E94DD010E94E6019981612F792F15
:100470007B0107C0F70181917F010E9414020E9455
:10048000E6018E2D811B8017A8F384E98093BC00C0
:100490000E94E6010F90CF91DF911F910F91FF9085
:1004A000EF900895AF92BF92DF92EF92FF920F9379
:1004B0001F93DF93CF9300D00F92CDB7DEB7D42E2A
:1004C0006A837B8389830E94DD010E94E601898122
:1004D0000E9414020E94E6016A817B81E62EF72EBB
:1004E000AA24BB240D2D10E00150104014C0A0160A
:1004F000B10611F480E001C08FEF0E94F2010E946A
:10050000E6018091BB00F70181937F010E94E60123
:100510000894A11CB11CAD1450F384E98093BC0075
:100520000E94E6010F900F900F90CF91DF911F91E5
:100530000F91FF90EF90DF90BF90AF900895AF9232
:10054000BF92CF92DF92EF92FF920F93DF93CF9300
:1005500000D000D00F92CDB7DEB72C833D834A8305
:100560006B8389830E94DD010E94E60189810E94DC
:1005700014020E94E6014A81842F0E9414020E9404
:10058000E6010E94DD010E94E6016B81862F0E9438
:1005900014020E94E6012C813D81C22ED32EAA2492
:1005A000BB24E02EFF240894E108F10814C0AE1427
:1005B000BF0411F480E001C08FEF0E94F2010E949D
:1005C000E6018091BB00F60181936F010E94E60174
:1005D0000894A11CB11CA01650F384E98093BC00C0
:1005E0000E94E6010F900F900F900F900F90CF9107
:1005F000DF910F91FF90EF90DF90CF90BF90AF9081
:1006000008951092800022E020936F00909389005B
:10061000809388008AE08093810008951F920F9252
:100620000FB60F9211248F939F93AF93BF93809136
:10063000140190911501A0911601B0911701019636
:10064000A11DB11D8093140190931501A093160173
:10065000B0931701BF91AF919F918F910F900FBEF3
:100660000F901F901895FC01319680E001C08927FA
:1006700091919A3211F09923D1F70895E82FF92F2B
:1006800080E009C09081292F2156263010F4905225
:1006900090838F5F31968617A8F30895BF92CF920B
:1006A000DF92EF92FF920F931F93CF93DF93C62EAB
:1006B0007A01FA013696082F192FDD248CE2B82E24
:1006C00010C0B082F801819191918F01BE014AE082
:1006D00050E00E94EE04FE01888121968823D9F71C
:1006E000D394EF012196DC1460F38AE28083C70182
:1006F0000E94330390E0BE0140E150E00E940F05EC
:10070000CE0162E00E943E03DE0189918823E1F779
:10071000FD018DE081938AE011968C9311971182EF
:10072000DF91CF911F910F91FF90EF90DF90CF90CD
:10073000BF9008952F923F924F925F926F927F9257
:100740008F929F92AF92BF92CF92DF92EF92FF92E1
:100750000F931F93DF93CF93CDB7DEB763970FB699
:10076000F894DEBF0FBECDBF109214011092150198
:10077000109216011092170134E23093180123E50C
:100780002093190196E490931A0189E480931B0148
:100790008DE480931C0145E540931D0130934D018C
:1007A00020934E0190934F018093500181E48093F8
:1007B000510187E4809352011C861B861A86198694
:1007C00018861F821A8A198A188A1F861E861D8615
:1007D0001E821D821C821B821A821982259A2D98E4
:1007E00080E190E00E94940480E091E00E94C604C1
:1007F0000E94220280E066E040E023E000E00E94E8
:10080000BE008FE460E00E944C010E94530080E132
:1008100097E20E940103789420E0E7E0EE2EF12CAD
:10082000EC0EFD1E79E0C72ED12CCC0EDD1E6BE048
:10083000A62EB12CAC0EBD1E5DE0852E912C8C0E2B
:100840009D1E4FE0642E712C6C0E7D1E31E1432EF7
:10085000512C4C0E5D1E93E0292E312C2C0E3D1E8A
:100860008E010F5F1F4F8091140190911501A0918F
:100870001601B09117010097A105B105A1F3809170
:10088000140190911501A0911601B09117010197E3
:10089000A109B1098093140190931501A093160149
:1008A000B09317018091140190911501A091160148
:1008B000B09117010097A105B10541F01092140104
:1008C0001092150110921601109217012F5F2D9AA8
:1008D000C701B601A5012B8B0E947800C401B301AA
:1008E000A2010E947401C70166E048E151E00E9444
:1008F0004E0388E191E00E94C6042B89263090F0D7
:10090000C801B101AE014B5F5F4F0E94F700C80103
:1009100063E04DE451E00E944E038DE491E00E94BB
:10092000C60420E02D989FCF9C01832F992787FD37
:100930009A958093C5002093C40082E08093C00004
:1009400088E18093C10086E08093C2000895809181
:10095000C000807808958091C60008959091C000ED
:1009600095FFFCCF8093C60008951F93182F8A30FF
:1009700019F48DE00E94B5048091C00085FFFCCF82
:100980001093C60080E090E01F910895EF92FF92CF
:10099000CF93DF93E82EE7017E01F92EE70102C035
:1009A0000E94AE0489918823D9F7DF91CF91FF90FF
:1009B000EF900895AA1BBB1B51E107C0AA1FBB1FE4
:1009C000A617B70710F0A61BB70B881F991F5A95DB
:1009D000A9F780959095BC01CD010895FB019F0179
:1009E000E8944230C4F04532B4F44A3029F497FB1D
:1009F0001EF4909581959F4F642F77270E94DA040B
:100A0000805D8A330CF0895D8193CB010097A1F75B
:100A100016F45DE251931082C9010C942505FB0187
:100A20009F01423074F0453264F4642F77270E94AE
:100A3000DA04805D8A330CF0895D8193CB010097E5
:100A4000A1F71082C9010C942505DC01FC01672F78
:100A500071917723E1F7329704C07C916D93708395
:0E0A60006291AE17BF07C8F30895F894FFCF58
:100A6E005561727420696E697469616C697365642D
:040A7E00210A000049
:00000001FF
